{
  "_format": "hh-sol-artifact-1",
  "contractName": "MoviesToken",
  "sourceName": "contracts/MoviesToken.sol",
  "abi": [
    {
      "inputs": [],
      "stateMutability": "nonpayable",
      "type": "constructor"
    },
    {
      "anonymous": false,
      "inputs": [
        {
          "indexed": true,
          "internalType": "address",
          "name": "owner",
          "type": "address"
        },
        {
          "indexed": true,
          "internalType": "address",
          "name": "approved",
          "type": "address"
        },
        {
          "indexed": true,
          "internalType": "uint256",
          "name": "tokenId",
          "type": "uint256"
        }
      ],
      "name": "Approval",
      "type": "event"
    },
    {
      "anonymous": false,
      "inputs": [
        {
          "indexed": true,
          "internalType": "address",
          "name": "owner",
          "type": "address"
        },
        {
          "indexed": true,
          "internalType": "address",
          "name": "operator",
          "type": "address"
        },
        {
          "indexed": false,
          "internalType": "bool",
          "name": "approved",
          "type": "bool"
        }
      ],
      "name": "ApprovalForAll",
      "type": "event"
    },
    {
      "anonymous": false,
      "inputs": [
        {
          "indexed": true,
          "internalType": "address",
          "name": "previousOwner",
          "type": "address"
        },
        {
          "indexed": true,
          "internalType": "address",
          "name": "newOwner",
          "type": "address"
        }
      ],
      "name": "OwnershipTransferred",
      "type": "event"
    },
    {
      "anonymous": false,
      "inputs": [
        {
          "indexed": true,
          "internalType": "address",
          "name": "from",
          "type": "address"
        },
        {
          "indexed": true,
          "internalType": "address",
          "name": "to",
          "type": "address"
        },
        {
          "indexed": true,
          "internalType": "uint256",
          "name": "tokenId",
          "type": "uint256"
        }
      ],
      "name": "Transfer",
      "type": "event"
    },
    {
      "inputs": [
        {
          "internalType": "address",
          "name": "to",
          "type": "address"
        },
        {
          "internalType": "uint256",
          "name": "tokenId",
          "type": "uint256"
        }
      ],
      "name": "approve",
      "outputs": [],
      "stateMutability": "nonpayable",
      "type": "function"
    },
    {
      "inputs": [
        {
          "internalType": "address",
          "name": "owner",
          "type": "address"
        }
      ],
      "name": "balanceOf",
      "outputs": [
        {
          "internalType": "uint256",
          "name": "",
          "type": "uint256"
        }
      ],
      "stateMutability": "view",
      "type": "function"
    },
    {
      "inputs": [
        {
          "internalType": "uint256",
          "name": "tokenId",
          "type": "uint256"
        }
      ],
      "name": "getApproved",
      "outputs": [
        {
          "internalType": "address",
          "name": "",
          "type": "address"
        }
      ],
      "stateMutability": "view",
      "type": "function"
    },
    {
      "inputs": [
        {
          "internalType": "uint256",
          "name": "id",
          "type": "uint256"
        }
      ],
      "name": "getMintRecord",
      "outputs": [
        {
          "internalType": "bool",
          "name": "",
          "type": "bool"
        }
      ],
      "stateMutability": "view",
      "type": "function"
    },
    {
      "inputs": [],
      "name": "getTotalSupply",
      "outputs": [
        {
          "internalType": "uint256",
          "name": "",
          "type": "uint256"
        }
      ],
      "stateMutability": "view",
      "type": "function"
    },
    {
      "inputs": [
        {
          "internalType": "address",
          "name": "owner",
          "type": "address"
        },
        {
          "internalType": "address",
          "name": "operator",
          "type": "address"
        }
      ],
      "name": "isApprovedForAll",
      "outputs": [
        {
          "internalType": "bool",
          "name": "",
          "type": "bool"
        }
      ],
      "stateMutability": "view",
      "type": "function"
    },
    {
      "inputs": [
        {
          "internalType": "address",
          "name": "to",
          "type": "address"
        },
        {
          "internalType": "string",
          "name": "tokenURI",
          "type": "string"
        },
        {
          "internalType": "uint256",
          "name": "id",
          "type": "uint256"
        }
      ],
      "name": "mint",
      "outputs": [
        {
          "internalType": "uint256",
          "name": "",
          "type": "uint256"
        }
      ],
      "stateMutability": "nonpayable",
      "type": "function"
    },
    {
      "inputs": [],
      "name": "name",
      "outputs": [
        {
          "internalType": "string",
          "name": "",
          "type": "string"
        }
      ],
      "stateMutability": "view",
      "type": "function"
    },
    {
      "inputs": [],
      "name": "owner",
      "outputs": [
        {
          "internalType": "address",
          "name": "",
          "type": "address"
        }
      ],
      "stateMutability": "view",
      "type": "function"
    },
    {
      "inputs": [
        {
          "internalType": "uint256",
          "name": "tokenId",
          "type": "uint256"
        }
      ],
      "name": "ownerOf",
      "outputs": [
        {
          "internalType": "address",
          "name": "",
          "type": "address"
        }
      ],
      "stateMutability": "view",
      "type": "function"
    },
    {
      "inputs": [],
      "name": "renounceOwnership",
      "outputs": [],
      "stateMutability": "nonpayable",
      "type": "function"
    },
    {
      "inputs": [
        {
          "internalType": "address",
          "name": "from",
          "type": "address"
        },
        {
          "internalType": "address",
          "name": "to",
          "type": "address"
        },
        {
          "internalType": "uint256",
          "name": "tokenId",
          "type": "uint256"
        }
      ],
      "name": "safeTransferFrom",
      "outputs": [],
      "stateMutability": "nonpayable",
      "type": "function"
    },
    {
      "inputs": [
        {
          "internalType": "address",
          "name": "from",
          "type": "address"
        },
        {
          "internalType": "address",
          "name": "to",
          "type": "address"
        },
        {
          "internalType": "uint256",
          "name": "tokenId",
          "type": "uint256"
        },
        {
          "internalType": "bytes",
          "name": "data",
          "type": "bytes"
        }
      ],
      "name": "safeTransferFrom",
      "outputs": [],
      "stateMutability": "nonpayable",
      "type": "function"
    },
    {
      "inputs": [
        {
          "internalType": "address",
          "name": "operator",
          "type": "address"
        },
        {
          "internalType": "bool",
          "name": "approved",
          "type": "bool"
        }
      ],
      "name": "setApprovalForAll",
      "outputs": [],
      "stateMutability": "nonpayable",
      "type": "function"
    },
    {
      "inputs": [
        {
          "internalType": "bytes4",
          "name": "interfaceId",
          "type": "bytes4"
        }
      ],
      "name": "supportsInterface",
      "outputs": [
        {
          "internalType": "bool",
          "name": "",
          "type": "bool"
        }
      ],
      "stateMutability": "view",
      "type": "function"
    },
    {
      "inputs": [],
      "name": "symbol",
      "outputs": [
        {
          "internalType": "string",
          "name": "",
          "type": "string"
        }
      ],
      "stateMutability": "view",
      "type": "function"
    },
    {
      "inputs": [
        {
          "internalType": "uint256",
          "name": "tokenId",
          "type": "uint256"
        }
      ],
      "name": "tokenURI",
      "outputs": [
        {
          "internalType": "string",
          "name": "",
          "type": "string"
        }
      ],
      "stateMutability": "view",
      "type": "function"
    },
    {
      "inputs": [
        {
          "internalType": "address",
          "name": "from",
          "type": "address"
        },
        {
          "internalType": "address",
          "name": "to",
          "type": "address"
        },
        {
          "internalType": "uint256",
          "name": "tokenId",
          "type": "uint256"
        }
      ],
      "name": "transferFrom",
      "outputs": [],
      "stateMutability": "nonpayable",
      "type": "function"
    },
    {
      "inputs": [
        {
          "internalType": "address",
          "name": "newOwner",
          "type": "address"
        }
      ],
      "name": "transferOwnership",
      "outputs": [],
      "stateMutability": "nonpayable",
      "type": "function"
    }
  ],
  "bytecode": "0x60806040523480156200001157600080fd5b506040518060400160405280600b81526020017f4d6f76696573546f6b656e0000000000000000000000000000000000000000008152506040518060400160405280600381526020017f4d544b00000000000000000000000000000000000000000000000000000000008152506200009e62000092620000d860201b60201c565b620000e060201b60201c565b8160019080519060200190620000b6929190620001a4565b508060029080519060200190620000cf929190620001a4565b505050620002b9565b600033905090565b60008060009054906101000a900473ffffffffffffffffffffffffffffffffffffffff169050816000806101000a81548173ffffffffffffffffffffffffffffffffffffffff021916908373ffffffffffffffffffffffffffffffffffffffff1602179055508173ffffffffffffffffffffffffffffffffffffffff168173ffffffffffffffffffffffffffffffffffffffff167f8be0079c531659141344cd1fd0a4f28419497f9722a3daafe3b4186f6b6457e060405160405180910390a35050565b828054620001b29062000283565b90600052602060002090601f016020900481019282620001d6576000855562000222565b82601f10620001f157805160ff191683800117855562000222565b8280016001018555821562000222579182015b828111156200022157825182559160200191906001019062000204565b5b50905062000231919062000235565b5090565b5b808211156200025057600081600090555060010162000236565b5090565b7f4e487b7100000000000000000000000000000000000000000000000000000000600052602260045260246000fd5b600060028204905060018216806200029c57607f821691505b60208210811415620002b357620002b262000254565b5b50919050565b612db280620002c96000396000f3fe608060405234801561001057600080fd5b50600436106101215760003560e01c80638da5cb5b116100ad578063c4e41b2211610071578063c4e41b2214610306578063c87b56dd14610324578063cb07b7ff14610354578063e985e9c514610384578063f2fde38b146103b457610121565b80638da5cb5b1461026257806395d89b4114610280578063a22cb4651461029e578063b88d4fde146102ba578063ba7aef43146102d657610121565b806323b872dd116100f457806323b872dd146101c057806342842e0e146101dc5780636352211e146101f857806370a0823114610228578063715018a61461025857610121565b806301ffc9a71461012657806306fdde0314610156578063081812fc14610174578063095ea7b3146101a4575b600080fd5b610140600480360381019061013b9190611c05565b6103d0565b60405161014d9190611c4d565b60405180910390f35b61015e6104b2565b60405161016b9190611d01565b60405180910390f35b61018e60048036038101906101899190611d59565b610544565b60405161019b9190611dc7565b60405180910390f35b6101be60048036038101906101b99190611e0e565b61058a565b005b6101da60048036038101906101d59190611e4e565b6106a2565b005b6101f660048036038101906101f19190611e4e565b610702565b005b610212600480360381019061020d9190611d59565b610722565b60405161021f9190611dc7565b60405180910390f35b610242600480360381019061023d9190611ea1565b6107d4565b60405161024f9190611edd565b60405180910390f35b61026061088c565b005b61026a6108a0565b6040516102779190611dc7565b60405180910390f35b6102886108c9565b6040516102959190611d01565b60405180910390f35b6102b860048036038101906102b39190611f24565b61095b565b005b6102d460048036038101906102cf9190612099565b610971565b005b6102f060048036038101906102eb91906121bd565b6109d3565b6040516102fd9190611edd565b60405180910390f35b61030e610a98565b60405161031b9190611edd565b60405180910390f35b61033e60048036038101906103399190611d59565b610aa2565b60405161034b9190611d01565b60405180910390f35b61036e60048036038101906103699190611d59565b610bb5565b60405161037b9190611c4d565b60405180910390f35b61039e6004803603810190610399919061222c565b610bdf565b6040516103ab9190611c4d565b60405180910390f35b6103ce60048036038101906103c99190611ea1565b610c73565b005b60007f80ac58cd000000000000000000000000000000000000000000000000000000007bffffffffffffffffffffffffffffffffffffffffffffffffffffffff1916827bffffffffffffffffffffffffffffffffffffffffffffffffffffffff1916148061049b57507f5b5e139f000000000000000000000000000000000000000000000000000000007bffffffffffffffffffffffffffffffffffffffffffffffffffffffff1916827bffffffffffffffffffffffffffffffffffffffffffffffffffffffff1916145b806104ab57506104aa82610cf7565b5b9050919050565b6060600180546104c19061229b565b80601f01602080910402602001604051908101604052809291908181526020018280546104ed9061229b565b801561053a5780601f1061050f5761010080835404028352916020019161053a565b820191906000526020600020905b81548152906001019060200180831161051d57829003601f168201915b5050505050905090565b600061054f82610d61565b6005600083815260200190815260200160002060009054906101000a900473ffffffffffffffffffffffffffffffffffffffff169050919050565b600061059582610722565b90508073ffffffffffffffffffffffffffffffffffffffff168373ffffffffffffffffffffffffffffffffffffffff161415610606576040517f08c379a00000000000000000000000000000000000000000000000000000000081526004016105fd9061233f565b60405180910390fd5b8073ffffffffffffffffffffffffffffffffffffffff16610625610dac565b73ffffffffffffffffffffffffffffffffffffffff16148061065457506106538161064e610dac565b610bdf565b5b610693576040517f08c379a000000000000000000000000000000000000000000000000000000000815260040161068a906123d1565b60405180910390fd5b61069d8383610db4565b505050565b6106b36106ad610dac565b82610e6d565b6106f2576040517f08c379a00000000000000000000000000000000000000000000000000000000081526004016106e990612463565b60405180910390fd5b6106fd838383610f02565b505050565b61071d83838360405180602001604052806000815250610971565b505050565b6000806003600084815260200190815260200160002060009054906101000a900473ffffffffffffffffffffffffffffffffffffffff169050600073ffffffffffffffffffffffffffffffffffffffff168173ffffffffffffffffffffffffffffffffffffffff1614156107cb576040517f08c379a00000000000000000000000000000000000000000000000000000000081526004016107c2906124cf565b60405180910390fd5b80915050919050565b60008073ffffffffffffffffffffffffffffffffffffffff168273ffffffffffffffffffffffffffffffffffffffff161415610845576040517f08c379a000000000000000000000000000000000000000000000000000000000815260040161083c90612561565b60405180910390fd5b600460008373ffffffffffffffffffffffffffffffffffffffff1673ffffffffffffffffffffffffffffffffffffffff168152602001908152602001600020549050919050565b610894611169565b61089e60006111e7565b565b60008060009054906101000a900473ffffffffffffffffffffffffffffffffffffffff16905090565b6060600280546108d89061229b565b80601f01602080910402602001604051908101604052809291908181526020018280546109049061229b565b80156109515780601f1061092657610100808354040283529160200191610951565b820191906000526020600020905b81548152906001019060200180831161093457829003601f168201915b5050505050905090565b61096d610966610dac565b83836112ab565b5050565b61098261097c610dac565b83610e6d565b6109c1576040517f08c379a00000000000000000000000000000000000000000000000000000000081526004016109b890612463565b60405180910390fd5b6109cd84848484611418565b50505050565b60006064600a541115610a1b576040517f08c379a0000000000000000000000000000000000000000000000000000000008152600401610a12906125cd565b60405180910390fd5b610a256008611474565b6000610a31600861148a565b9050610a3d8582611498565b610a478185611672565b60016009600085815260200190815260200160002060006101000a81548160ff021916908315150217905550809150506001600a6000828254610a8a919061261c565b925050819055509392505050565b6000600a54905090565b6060610aad82610d61565b6000600760008481526020019081526020016000208054610acd9061229b565b80601f0160208091040260200160405190810160405280929190818152602001828054610af99061229b565b8015610b465780601f10610b1b57610100808354040283529160200191610b46565b820191906000526020600020905b815481529060010190602001808311610b2957829003601f168201915b505050505090506000610b576116e6565b9050600081511415610b6d578192505050610bb0565b600082511115610ba2578082604051602001610b8a9291906126ae565b60405160208183030381529060405292505050610bb0565b610bab846116fd565b925050505b919050565b60006009600083815260200190815260200160002060009054906101000a900460ff169050919050565b6000600660008473ffffffffffffffffffffffffffffffffffffffff1673ffffffffffffffffffffffffffffffffffffffff16815260200190815260200160002060008373ffffffffffffffffffffffffffffffffffffffff1673ffffffffffffffffffffffffffffffffffffffff16815260200190815260200160002060009054906101000a900460ff16905092915050565b610c7b611169565b600073ffffffffffffffffffffffffffffffffffffffff168173ffffffffffffffffffffffffffffffffffffffff161415610ceb576040517f08c379a0000000000000000000000000000000000000000000000000000000008152600401610ce290612744565b60405180910390fd5b610cf4816111e7565b50565b60007f01ffc9a7000000000000000000000000000000000000000000000000000000007bffffffffffffffffffffffffffffffffffffffffffffffffffffffff1916827bffffffffffffffffffffffffffffffffffffffffffffffffffffffff1916149050919050565b610d6a81611765565b610da9576040517f08c379a0000000000000000000000000000000000000000000000000000000008152600401610da0906124cf565b60405180910390fd5b50565b600033905090565b816005600083815260200190815260200160002060006101000a81548173ffffffffffffffffffffffffffffffffffffffff021916908373ffffffffffffffffffffffffffffffffffffffff160217905550808273ffffffffffffffffffffffffffffffffffffffff16610e2783610722565b73ffffffffffffffffffffffffffffffffffffffff167f8c5be1e5ebec7d5bd14f71427d1e84f3dd0314c0f7b2291e5b200ac8c7c3b92560405160405180910390a45050565b600080610e7983610722565b90508073ffffffffffffffffffffffffffffffffffffffff168473ffffffffffffffffffffffffffffffffffffffff161480610ebb5750610eba8185610bdf565b5b80610ef957508373ffffffffffffffffffffffffffffffffffffffff16610ee184610544565b73ffffffffffffffffffffffffffffffffffffffff16145b91505092915050565b8273ffffffffffffffffffffffffffffffffffffffff16610f2282610722565b73ffffffffffffffffffffffffffffffffffffffff1614610f78576040517f08c379a0000000000000000000000000000000000000000000000000000000008152600401610f6f906127d6565b60405180910390fd5b600073ffffffffffffffffffffffffffffffffffffffff168273ffffffffffffffffffffffffffffffffffffffff161415610fe8576040517f08c379a0000000000000000000000000000000000000000000000000000000008152600401610fdf90612868565b60405180910390fd5b610ff38383836117d1565b610ffe600082610db4565b6001600460008573ffffffffffffffffffffffffffffffffffffffff1673ffffffffffffffffffffffffffffffffffffffff168152602001908152602001600020600082825461104e9190612888565b925050819055506001600460008473ffffffffffffffffffffffffffffffffffffffff1673ffffffffffffffffffffffffffffffffffffffff16815260200190815260200160002060008282546110a5919061261c565b92505081905550816003600083815260200190815260200160002060006101000a81548173ffffffffffffffffffffffffffffffffffffffff021916908373ffffffffffffffffffffffffffffffffffffffff160217905550808273ffffffffffffffffffffffffffffffffffffffff168473ffffffffffffffffffffffffffffffffffffffff167fddf252ad1be2c89b69c2b068fc378daa952ba7f163c4a11628f55a4df523b3ef60405160405180910390a46111648383836117d6565b505050565b611171610dac565b73ffffffffffffffffffffffffffffffffffffffff1661118f6108a0565b73ffffffffffffffffffffffffffffffffffffffff16146111e5576040517f08c379a00000000000000000000000000000000000000000000000000000000081526004016111dc90612908565b60405180910390fd5b565b60008060009054906101000a900473ffffffffffffffffffffffffffffffffffffffff169050816000806101000a81548173ffffffffffffffffffffffffffffffffffffffff021916908373ffffffffffffffffffffffffffffffffffffffff1602179055508173ffffffffffffffffffffffffffffffffffffffff168173ffffffffffffffffffffffffffffffffffffffff167f8be0079c531659141344cd1fd0a4f28419497f9722a3daafe3b4186f6b6457e060405160405180910390a35050565b8173ffffffffffffffffffffffffffffffffffffffff168373ffffffffffffffffffffffffffffffffffffffff16141561131a576040517f08c379a000000000000000000000000000000000000000000000000000000000815260040161131190612974565b60405180910390fd5b80600660008573ffffffffffffffffffffffffffffffffffffffff1673ffffffffffffffffffffffffffffffffffffffff16815260200190815260200160002060008473ffffffffffffffffffffffffffffffffffffffff1673ffffffffffffffffffffffffffffffffffffffff16815260200190815260200160002060006101000a81548160ff0219169083151502179055508173ffffffffffffffffffffffffffffffffffffffff168373ffffffffffffffffffffffffffffffffffffffff167f17307eab39ab6107e8899845ad3d59bd9653f200f220920489ca2b5937696c318360405161140b9190611c4d565b60405180910390a3505050565b611423848484610f02565b61142f848484846117db565b61146e576040517f08c379a000000000000000000000000000000000000000000000000000000000815260040161146590612a06565b60405180910390fd5b50505050565b6001816000016000828254019250508190555050565b600081600001549050919050565b600073ffffffffffffffffffffffffffffffffffffffff168273ffffffffffffffffffffffffffffffffffffffff161415611508576040517f08c379a00000000000000000000000000000000000000000000000000000000081526004016114ff90612a72565b60405180910390fd5b61151181611765565b15611551576040517f08c379a000000000000000000000000000000000000000000000000000000000815260040161154890612ade565b60405180910390fd5b61155d600083836117d1565b6001600460008473ffffffffffffffffffffffffffffffffffffffff1673ffffffffffffffffffffffffffffffffffffffff16815260200190815260200160002060008282546115ad919061261c565b92505081905550816003600083815260200190815260200160002060006101000a81548173ffffffffffffffffffffffffffffffffffffffff021916908373ffffffffffffffffffffffffffffffffffffffff160217905550808273ffffffffffffffffffffffffffffffffffffffff16600073ffffffffffffffffffffffffffffffffffffffff167fddf252ad1be2c89b69c2b068fc378daa952ba7f163c4a11628f55a4df523b3ef60405160405180910390a461166e600083836117d6565b5050565b61167b82611765565b6116ba576040517f08c379a00000000000000000000000000000000000000000000000000000000081526004016116b190612b70565b60405180910390fd5b806007600084815260200190815260200160002090805190602001906116e1929190611af6565b505050565b606060405180602001604052806000815250905090565b606061170882610d61565b60006117126116e6565b90506000815111611732576040518060200160405280600081525061175d565b8061173c84611972565b60405160200161174d9291906126ae565b6040516020818303038152906040525b915050919050565b60008073ffffffffffffffffffffffffffffffffffffffff166003600084815260200190815260200160002060009054906101000a900473ffffffffffffffffffffffffffffffffffffffff1673ffffffffffffffffffffffffffffffffffffffff1614159050919050565b505050565b505050565b60006117fc8473ffffffffffffffffffffffffffffffffffffffff16611ad3565b15611965578373ffffffffffffffffffffffffffffffffffffffff1663150b7a02611825610dac565b8786866040518563ffffffff1660e01b81526004016118479493929190612be5565b602060405180830381600087803b15801561186157600080fd5b505af192505050801561189257506040513d601f19601f8201168201806040525081019061188f9190612c46565b60015b611915573d80600081146118c2576040519150601f19603f3d011682016040523d82523d6000602084013e6118c7565b606091505b5060008151141561190d576040517f08c379a000000000000000000000000000000000000000000000000000000000815260040161190490612a06565b60405180910390fd5b805181602001fd5b63150b7a0260e01b7bffffffffffffffffffffffffffffffffffffffffffffffffffffffff1916817bffffffffffffffffffffffffffffffffffffffffffffffffffffffff19161491505061196a565b600190505b949350505050565b606060008214156119ba576040518060400160405280600181526020017f30000000000000000000000000000000000000000000000000000000000000008152509050611ace565b600082905060005b600082146119ec5780806119d590612c73565b915050600a826119e59190612ceb565b91506119c2565b60008167ffffffffffffffff811115611a0857611a07611f6e565b5b6040519080825280601f01601f191660200182016040528015611a3a5781602001600182028036833780820191505090505b5090505b60008514611ac757600182611a539190612888565b9150600a85611a629190612d1c565b6030611a6e919061261c565b60f81b818381518110611a8457611a83612d4d565b5b60200101907effffffffffffffffffffffffffffffffffffffffffffffffffffffffffffff1916908160001a905350600a85611ac09190612ceb565b9450611a3e565b8093505050505b919050565b6000808273ffffffffffffffffffffffffffffffffffffffff163b119050919050565b828054611b029061229b565b90600052602060002090601f016020900481019282611b245760008555611b6b565b82601f10611b3d57805160ff1916838001178555611b6b565b82800160010185558215611b6b579182015b82811115611b6a578251825591602001919060010190611b4f565b5b509050611b789190611b7c565b5090565b5b80821115611b95576000816000905550600101611b7d565b5090565b6000604051905090565b600080fd5b600080fd5b60007fffffffff0000000000000000000000000000000000000000000000000000000082169050919050565b611be281611bad565b8114611bed57600080fd5b50565b600081359050611bff81611bd9565b92915050565b600060208284031215611c1b57611c1a611ba3565b5b6000611c2984828501611bf0565b91505092915050565b60008115159050919050565b611c4781611c32565b82525050565b6000602082019050611c626000830184611c3e565b92915050565b600081519050919050565b600082825260208201905092915050565b60005b83811015611ca2578082015181840152602081019050611c87565b83811115611cb1576000848401525b50505050565b6000601f19601f8301169050919050565b6000611cd382611c68565b611cdd8185611c73565b9350611ced818560208601611c84565b611cf681611cb7565b840191505092915050565b60006020820190508181036000830152611d1b8184611cc8565b905092915050565b6000819050919050565b611d3681611d23565b8114611d4157600080fd5b50565b600081359050611d5381611d2d565b92915050565b600060208284031215611d6f57611d6e611ba3565b5b6000611d7d84828501611d44565b91505092915050565b600073ffffffffffffffffffffffffffffffffffffffff82169050919050565b6000611db182611d86565b9050919050565b611dc181611da6565b82525050565b6000602082019050611ddc6000830184611db8565b92915050565b611deb81611da6565b8114611df657600080fd5b50565b600081359050611e0881611de2565b92915050565b60008060408385031215611e2557611e24611ba3565b5b6000611e3385828601611df9565b9250506020611e4485828601611d44565b9150509250929050565b600080600060608486031215611e6757611e66611ba3565b5b6000611e7586828701611df9565b9350506020611e8686828701611df9565b9250506040611e9786828701611d44565b9150509250925092565b600060208284031215611eb757611eb6611ba3565b5b6000611ec584828501611df9565b91505092915050565b611ed781611d23565b82525050565b6000602082019050611ef26000830184611ece565b92915050565b611f0181611c32565b8114611f0c57600080fd5b50565b600081359050611f1e81611ef8565b92915050565b60008060408385031215611f3b57611f3a611ba3565b5b6000611f4985828601611df9565b9250506020611f5a85828601611f0f565b9150509250929050565b600080fd5b600080fd5b7f4e487b7100000000000000000000000000000000000000000000000000000000600052604160045260246000fd5b611fa682611cb7565b810181811067ffffffffffffffff82111715611fc557611fc4611f6e565b5b80604052505050565b6000611fd8611b99565b9050611fe48282611f9d565b919050565b600067ffffffffffffffff82111561200457612003611f6e565b5b61200d82611cb7565b9050602081019050919050565b82818337600083830152505050565b600061203c61203784611fe9565b611fce565b90508281526020810184848401111561205857612057611f69565b5b61206384828561201a565b509392505050565b600082601f8301126120805761207f611f64565b5b8135612090848260208601612029565b91505092915050565b600080600080608085870312156120b3576120b2611ba3565b5b60006120c187828801611df9565b94505060206120d287828801611df9565b93505060406120e387828801611d44565b925050606085013567ffffffffffffffff81111561210457612103611ba8565b5b6121108782880161206b565b91505092959194509250565b600067ffffffffffffffff82111561213757612136611f6e565b5b61214082611cb7565b9050602081019050919050565b600061216061215b8461211c565b611fce565b90508281526020810184848401111561217c5761217b611f69565b5b61218784828561201a565b509392505050565b600082601f8301126121a4576121a3611f64565b5b81356121b484826020860161214d565b91505092915050565b6000806000606084860312156121d6576121d5611ba3565b5b60006121e486828701611df9565b935050602084013567ffffffffffffffff81111561220557612204611ba8565b5b6122118682870161218f565b925050604061222286828701611d44565b9150509250925092565b6000806040838503121561224357612242611ba3565b5b600061225185828601611df9565b925050602061226285828601611df9565b9150509250929050565b7f4e487b7100000000000000000000000000000000000000000000000000000000600052602260045260246000fd5b600060028204905060018216806122b357607f821691505b602082108114156122c7576122c661226c565b5b50919050565b7f4552433732313a20617070726f76616c20746f2063757272656e74206f776e6560008201527f7200000000000000000000000000000000000000000000000000000000000000602082015250565b6000612329602183611c73565b9150612334826122cd565b604082019050919050565b600060208201905081810360008301526123588161231c565b9050919050565b7f4552433732313a20617070726f76652063616c6c6572206973206e6f7420746f60008201527f6b656e206f776e6572206e6f7220617070726f76656420666f7220616c6c0000602082015250565b60006123bb603e83611c73565b91506123c68261235f565b604082019050919050565b600060208201905081810360008301526123ea816123ae565b9050919050565b7f4552433732313a2063616c6c6572206973206e6f7420746f6b656e206f776e6560008201527f72206e6f7220617070726f766564000000000000000000000000000000000000602082015250565b600061244d602e83611c73565b9150612458826123f1565b604082019050919050565b6000602082019050818103600083015261247c81612440565b9050919050565b7f4552433732313a20696e76616c696420746f6b656e2049440000000000000000600082015250565b60006124b9601883611c73565b91506124c482612483565b602082019050919050565b600060208201905081810360008301526124e8816124ac565b9050919050565b7f4552433732313a2061646472657373207a65726f206973206e6f74206120766160008201527f6c6964206f776e65720000000000000000000000000000000000000000000000602082015250565b600061254b602983611c73565b9150612556826124ef565b604082019050919050565b6000602082019050818103600083015261257a8161253e565b9050919050565b7f746f74616c20737570706c792069732031303000000000000000000000000000600082015250565b60006125b7601383611c73565b91506125c282612581565b602082019050919050565b600060208201905081810360008301526125e6816125aa565b9050919050565b7f4e487b7100000000000000000000000000000000000000000000000000000000600052601160045260246000fd5b600061262782611d23565b915061263283611d23565b9250827fffffffffffffffffffffffffffffffffffffffffffffffffffffffffffffffff03821115612667576126666125ed565b5b828201905092915050565b600081905092915050565b600061268882611c68565b6126928185612672565b93506126a2818560208601611c84565b80840191505092915050565b60006126ba828561267d565b91506126c6828461267d565b91508190509392505050565b7f4f776e61626c653a206e6577206f776e657220697320746865207a65726f206160008201527f6464726573730000000000000000000000000000000000000000000000000000602082015250565b600061272e602683611c73565b9150612739826126d2565b604082019050919050565b6000602082019050818103600083015261275d81612721565b9050919050565b7f4552433732313a207472616e736665722066726f6d20696e636f72726563742060008201527f6f776e6572000000000000000000000000000000000000000000000000000000602082015250565b60006127c0602583611c73565b91506127cb82612764565b604082019050919050565b600060208201905081810360008301526127ef816127b3565b9050919050565b7f4552433732313a207472616e7366657220746f20746865207a65726f2061646460008201527f7265737300000000000000000000000000000000000000000000000000000000602082015250565b6000612852602483611c73565b915061285d826127f6565b604082019050919050565b6000602082019050818103600083015261288181612845565b9050919050565b600061289382611d23565b915061289e83611d23565b9250828210156128b1576128b06125ed565b5b828203905092915050565b7f4f776e61626c653a2063616c6c6572206973206e6f7420746865206f776e6572600082015250565b60006128f2602083611c73565b91506128fd826128bc565b602082019050919050565b60006020820190508181036000830152612921816128e5565b9050919050565b7f4552433732313a20617070726f766520746f2063616c6c657200000000000000600082015250565b600061295e601983611c73565b915061296982612928565b602082019050919050565b6000602082019050818103600083015261298d81612951565b9050919050565b7f4552433732313a207472616e7366657220746f206e6f6e20455243373231526560008201527f63656976657220696d706c656d656e7465720000000000000000000000000000602082015250565b60006129f0603283611c73565b91506129fb82612994565b604082019050919050565b60006020820190508181036000830152612a1f816129e3565b9050919050565b7f4552433732313a206d696e7420746f20746865207a65726f2061646472657373600082015250565b6000612a5c602083611c73565b9150612a6782612a26565b602082019050919050565b60006020820190508181036000830152612a8b81612a4f565b9050919050565b7f4552433732313a20746f6b656e20616c7265616479206d696e74656400000000600082015250565b6000612ac8601c83611c73565b9150612ad382612a92565b602082019050919050565b60006020820190508181036000830152612af781612abb565b9050919050565b7f45524337323155524953746f726167653a2055524920736574206f66206e6f6e60008201527f6578697374656e7420746f6b656e000000000000000000000000000000000000602082015250565b6000612b5a602e83611c73565b9150612b6582612afe565b604082019050919050565b60006020820190508181036000830152612b8981612b4d565b9050919050565b600081519050919050565b600082825260208201905092915050565b6000612bb782612b90565b612bc18185612b9b565b9350612bd1818560208601611c84565b612bda81611cb7565b840191505092915050565b6000608082019050612bfa6000830187611db8565b612c076020830186611db8565b612c146040830185611ece565b8181036060830152612c268184612bac565b905095945050505050565b600081519050612c4081611bd9565b92915050565b600060208284031215612c5c57612c5b611ba3565b5b6000612c6a84828501612c31565b91505092915050565b6000612c7e82611d23565b91507fffffffffffffffffffffffffffffffffffffffffffffffffffffffffffffffff821415612cb157612cb06125ed565b5b600182019050919050565b7f4e487b7100000000000000000000000000000000000000000000000000000000600052601260045260246000fd5b6000612cf682611d23565b9150612d0183611d23565b925082612d1157612d10612cbc565b5b828204905092915050565b6000612d2782611d23565b9150612d3283611d23565b925082612d4257612d41612cbc565b5b828206905092915050565b7f4e487b7100000000000000000000000000000000000000000000000000000000600052603260045260246000fdfea2646970667358221220ab72c893c333232c2f4da11e922e9c26a99001ec65cb7544cad0535046ac374b64736f6c63430008090033",
  "linkReferences": {},
  "deployedLinkReferences": {}
}